{
  "contractName": "mainNftRaffle",
  "abi": [
    {
      "inputs": [],
      "stateMutability": "nonpayable",
      "type": "constructor"
    },
    {
      "inputs": [
        {
          "internalType": "address",
          "name": "have",
          "type": "address"
        },
        {
          "internalType": "address",
          "name": "want",
          "type": "address"
        }
      ],
      "name": "OnlyCoordinatorCanFulfill",
      "type": "error"
    },
    {
      "anonymous": false,
      "inputs": [
        {
          "indexed": true,
          "internalType": "address",
          "name": "from",
          "type": "address"
        },
        {
          "indexed": true,
          "internalType": "address",
          "name": "to",
          "type": "address"
        }
      ],
      "name": "OwnershipTransferRequested",
      "type": "event"
    },
    {
      "anonymous": false,
      "inputs": [
        {
          "indexed": true,
          "internalType": "address",
          "name": "from",
          "type": "address"
        },
        {
          "indexed": true,
          "internalType": "address",
          "name": "to",
          "type": "address"
        }
      ],
      "name": "OwnershipTransferred",
      "type": "event"
    },
    {
      "anonymous": false,
      "inputs": [
        {
          "indexed": false,
          "internalType": "uint256",
          "name": "requestId",
          "type": "uint256"
        },
        {
          "indexed": false,
          "internalType": "uint256[]",
          "name": "randomWords",
          "type": "uint256[]"
        }
      ],
      "name": "RequestFulfilled",
      "type": "event"
    },
    {
      "anonymous": false,
      "inputs": [
        {
          "indexed": false,
          "internalType": "uint256",
          "name": "requestId",
          "type": "uint256"
        },
        {
          "indexed": false,
          "internalType": "uint32",
          "name": "numWords",
          "type": "uint32"
        }
      ],
      "name": "RequestSent",
      "type": "event"
    },
    {
      "anonymous": false,
      "inputs": [
        {
          "indexed": true,
          "internalType": "uint256",
          "name": "raffleId",
          "type": "uint256"
        },
        {
          "indexed": false,
          "internalType": "uint256",
          "name": "winningTicketNumber",
          "type": "uint256"
        },
        {
          "indexed": false,
          "internalType": "address",
          "name": "winningTicketOwner",
          "type": "address"
        }
      ],
      "name": "WinnerSelected",
      "type": "event"
    },
    {
      "anonymous": false,
      "inputs": [
        {
          "indexed": true,
          "internalType": "uint256",
          "name": "raffleId",
          "type": "uint256"
        }
      ],
      "name": "raffleEnded",
      "type": "event"
    },
    {
      "inputs": [],
      "name": "acceptOwnership",
      "outputs": [],
      "stateMutability": "nonpayable",
      "type": "function"
    },
    {
      "inputs": [],
      "name": "lastRequestId",
      "outputs": [
        {
          "internalType": "uint256",
          "name": "",
          "type": "uint256"
        }
      ],
      "stateMutability": "view",
      "type": "function",
      "constant": true
    },
    {
      "inputs": [],
      "name": "owner",
      "outputs": [
        {
          "internalType": "address",
          "name": "",
          "type": "address"
        }
      ],
      "stateMutability": "view",
      "type": "function",
      "constant": true
    },
    {
      "inputs": [
        {
          "internalType": "uint256",
          "name": "",
          "type": "uint256"
        }
      ],
      "name": "raffleIdToRequestId",
      "outputs": [
        {
          "internalType": "uint256",
          "name": "",
          "type": "uint256"
        }
      ],
      "stateMutability": "view",
      "type": "function",
      "constant": true
    },
    {
      "inputs": [
        {
          "internalType": "uint256",
          "name": "requestId",
          "type": "uint256"
        },
        {
          "internalType": "uint256[]",
          "name": "randomWords",
          "type": "uint256[]"
        }
      ],
      "name": "rawFulfillRandomWords",
      "outputs": [],
      "stateMutability": "nonpayable",
      "type": "function"
    },
    {
      "inputs": [
        {
          "internalType": "uint256",
          "name": "",
          "type": "uint256"
        }
      ],
      "name": "requestIds",
      "outputs": [
        {
          "internalType": "uint256",
          "name": "",
          "type": "uint256"
        }
      ],
      "stateMutability": "view",
      "type": "function",
      "constant": true
    },
    {
      "inputs": [
        {
          "internalType": "uint256",
          "name": "",
          "type": "uint256"
        }
      ],
      "name": "s_requests",
      "outputs": [
        {
          "internalType": "bool",
          "name": "fulfilled",
          "type": "bool"
        },
        {
          "internalType": "bool",
          "name": "exists",
          "type": "bool"
        }
      ],
      "stateMutability": "view",
      "type": "function",
      "constant": true
    },
    {
      "inputs": [
        {
          "internalType": "uint256",
          "name": "",
          "type": "uint256"
        },
        {
          "internalType": "uint256",
          "name": "",
          "type": "uint256"
        }
      ],
      "name": "ticketToOwner",
      "outputs": [
        {
          "internalType": "address",
          "name": "",
          "type": "address"
        }
      ],
      "stateMutability": "view",
      "type": "function",
      "constant": true
    },
    {
      "inputs": [
        {
          "internalType": "address",
          "name": "to",
          "type": "address"
        }
      ],
      "name": "transferOwnership",
      "outputs": [],
      "stateMutability": "nonpayable",
      "type": "function"
    },
    {
      "inputs": [
        {
          "internalType": "uint256",
          "name": "_raffleId",
          "type": "uint256"
        }
      ],
      "name": "requestRandomTicket",
      "outputs": [
        {
          "internalType": "uint256",
          "name": "requestId",
          "type": "uint256"
        }
      ],
      "stateMutability": "nonpayable",
      "type": "function"
    },
    {
      "inputs": [
        {
          "internalType": "uint256",
          "name": "_raffleId",
          "type": "uint256"
        }
      ],
      "name": "getRequestForRaffle",
      "outputs": [
        {
          "internalType": "uint256",
          "name": "requestId",
          "type": "uint256"
        }
      ],
      "stateMutability": "view",
      "type": "function",
      "constant": true
    },
    {
      "inputs": [
        {
          "internalType": "uint256",
          "name": "_requestId",
          "type": "uint256"
        }
      ],
      "name": "getRequestStatus",
      "outputs": [
        {
          "internalType": "bool",
          "name": "fulfilled",
          "type": "bool"
        },
        {
          "internalType": "uint256[]",
          "name": "randomWords",
          "type": "uint256[]"
        }
      ],
      "stateMutability": "view",
      "type": "function",
      "constant": true
    },
    {
      "inputs": [
        {
          "internalType": "string",
          "name": "_raffleName",
          "type": "string"
        },
        {
          "internalType": "string",
          "name": "_description",
          "type": "string"
        },
        {
          "internalType": "uint256",
          "name": "_nftPrice",
          "type": "uint256"
        },
        {
          "internalType": "uint256",
          "name": "_totalVolumeofTickets",
          "type": "uint256"
        },
        {
          "internalType": "uint256",
          "name": "_endTime",
          "type": "uint256"
        },
        {
          "internalType": "uint256",
          "name": "_nftId",
          "type": "uint256"
        },
        {
          "internalType": "address",
          "name": "_nftContractAddress",
          "type": "address"
        },
        {
          "internalType": "string[5]",
          "name": "_goals",
          "type": "string[5]"
        },
        {
          "internalType": "string",
          "name": "_nftSourceLink",
          "type": "string"
        },
        {
          "internalType": "address",
          "name": "_charityAddress",
          "type": "address"
        }
      ],
      "name": "createRaffle",
      "outputs": [
        {
          "internalType": "uint256",
          "name": "",
          "type": "uint256"
        }
      ],
      "stateMutability": "nonpayable",
      "type": "function"
    },
    {
      "inputs": [
        {
          "internalType": "uint256",
          "name": "_raffleId",
          "type": "uint256"
        }
      ],
      "name": "getTicketPrice",
      "outputs": [
        {
          "internalType": "uint256",
          "name": "",
          "type": "uint256"
        }
      ],
      "stateMutability": "view",
      "type": "function",
      "constant": true
    },
    {
      "inputs": [
        {
          "internalType": "address",
          "name": "_address",
          "type": "address"
        },
        {
          "internalType": "uint256",
          "name": "raffleId",
          "type": "uint256"
        }
      ],
      "name": "getTicketsOwned",
      "outputs": [
        {
          "internalType": "uint256",
          "name": "",
          "type": "uint256"
        }
      ],
      "stateMutability": "view",
      "type": "function",
      "constant": true
    },
    {
      "inputs": [
        {
          "internalType": "address",
          "name": "owner",
          "type": "address"
        }
      ],
      "name": "getOwnedRaffles",
      "outputs": [
        {
          "internalType": "uint256",
          "name": "totalRaffles",
          "type": "uint256"
        },
        {
          "internalType": "uint256[]",
          "name": "raffleIds",
          "type": "uint256[]"
        }
      ],
      "stateMutability": "view",
      "type": "function",
      "constant": true
    },
    {
      "inputs": [
        {
          "internalType": "uint256",
          "name": "_raffleID",
          "type": "uint256"
        }
      ],
      "name": "getAvailableTickets",
      "outputs": [
        {
          "internalType": "uint256",
          "name": "",
          "type": "uint256"
        }
      ],
      "stateMutability": "view",
      "type": "function",
      "constant": true
    },
    {
      "inputs": [
        {
          "internalType": "uint256",
          "name": "_raffleId",
          "type": "uint256"
        },
        {
          "internalType": "uint256",
          "name": "_totalTicketsWanted",
          "type": "uint256"
        }
      ],
      "name": "buyTicket",
      "outputs": [],
      "stateMutability": "payable",
      "type": "function",
      "payable": true
    },
    {
      "inputs": [
        {
          "internalType": "uint256",
          "name": "_raffleId",
          "type": "uint256"
        },
        {
          "internalType": "uint256",
          "name": "_totalTicketsWanted",
          "type": "uint256"
        }
      ],
      "name": "getTotalTicketPrice",
      "outputs": [
        {
          "internalType": "uint256",
          "name": "",
          "type": "uint256"
        }
      ],
      "stateMutability": "view",
      "type": "function",
      "constant": true
    },
    {
      "inputs": [
        {
          "internalType": "uint256",
          "name": "raffleId",
          "type": "uint256"
        },
        {
          "internalType": "uint256",
          "name": "requestId",
          "type": "uint256"
        }
      ],
      "name": "pickWinner",
      "outputs": [],
      "stateMutability": "nonpayable",
      "type": "function"
    },
    {
      "inputs": [
        {
          "internalType": "uint256",
          "name": "_raffleId",
          "type": "uint256"
        }
      ],
      "name": "cancelRaffle",
      "outputs": [],
      "stateMutability": "nonpayable",
      "type": "function"
    },
    {
      "inputs": [
        {
          "internalType": "uint256",
          "name": "_raffleId",
          "type": "uint256"
        }
      ],
      "name": "getPrizePool",
      "outputs": [
        {
          "internalType": "uint256",
          "name": "",
          "type": "uint256"
        },
        {
          "internalType": "uint256",
          "name": "",
          "type": "uint256"
        },
        {
          "internalType": "uint256",
          "name": "",
          "type": "uint256"
        },
        {
          "internalType": "uint256",
          "name": "",
          "type": "uint256"
        }
      ],
      "stateMutability": "view",
      "type": "function",
      "constant": true
    },
    {
      "inputs": [
        {
          "internalType": "uint256",
          "name": "raffleId",
          "type": "uint256"
        }
      ],
      "name": "getRaffleWinner",
      "outputs": [
        {
          "internalType": "address",
          "name": "winner",
          "type": "address"
        },
        {
          "internalType": "uint256",
          "name": "winningTicket",
          "type": "uint256"
        }
      ],
      "stateMutability": "view",
      "type": "function",
      "constant": true
    },
    {
      "inputs": [
        {
          "internalType": "uint256",
          "name": "_raffleID",
          "type": "uint256"
        }
      ],
      "name": "raffleInfo",
      "outputs": [
        {
          "components": [
            {
              "internalType": "uint256",
              "name": "raffleId",
              "type": "uint256"
            },
            {
              "internalType": "string",
              "name": "raffleName",
              "type": "string"
            },
            {
              "internalType": "string",
              "name": "description",
              "type": "string"
            },
            {
              "internalType": "string[5]",
              "name": "goals",
              "type": "string[5]"
            },
            {
              "internalType": "uint256",
              "name": "nftPrice",
              "type": "uint256"
            },
            {
              "internalType": "uint256",
              "name": "totalVolumeofTickets",
              "type": "uint256"
            },
            {
              "internalType": "uint256",
              "name": "endTime",
              "type": "uint256"
            },
            {
              "internalType": "uint256",
              "name": "nftId",
              "type": "uint256"
            },
            {
              "internalType": "address",
              "name": "nftContractAddress",
              "type": "address"
            },
            {
              "internalType": "string",
              "name": "nftSourceLink",
              "type": "string"
            },
            {
              "internalType": "address",
              "name": "charityAddress",
              "type": "address"
            },
            {
              "internalType": "address",
              "name": "raffleCreator",
              "type": "address"
            },
            {
              "internalType": "uint256",
              "name": "rafflePool",
              "type": "uint256"
            },
            {
              "internalType": "uint256",
              "name": "ticketPrice",
              "type": "uint256"
            },
            {
              "internalType": "uint256",
              "name": "totalSoldTickets",
              "type": "uint256"
            },
            {
              "internalType": "uint256",
              "name": "winningTicket",
              "type": "uint256"
            },
            {
              "internalType": "address",
              "name": "raffleWinner",
              "type": "address"
            },
            {
              "internalType": "bool",
              "name": "raffleCancelled",
              "type": "bool"
            },
            {
              "internalType": "bool",
              "name": "raffleEnded",
              "type": "bool"
            }
          ],
          "internalType": "struct mainNftRaffle.RaffleInfo",
          "name": "",
          "type": "tuple"
        }
      ],
      "stateMutability": "view",
      "type": "function",
      "constant": true
    },
    {
      "inputs": [
        {
          "internalType": "address",
          "name": "operator",
          "type": "address"
        },
        {
          "internalType": "address",
          "name": "from",
          "type": "address"
        },
        {
          "internalType": "uint256",
          "name": "tokenId",
          "type": "uint256"
        },
        {
          "internalType": "bytes",
          "name": "data",
          "type": "bytes"
        }
      ],
      "name": "onERC721Received",
      "outputs": [
        {
          "internalType": "bytes4",
          "name": "",
          "type": "bytes4"
        }
      ],
      "stateMutability": "nonpayable",
      "type": "function"
    },
    {
      "inputs": [
        {
          "internalType": "uint256",
          "name": "_raffleId",
          "type": "uint256"
        }
      ],
      "name": "getEntityAddresses",
      "outputs": [
        {
          "internalType": "address",
          "name": "",
          "type": "address"
        },
        {
          "internalType": "address",
          "name": "",
          "type": "address"
        },
        {
          "internalType": "address",
          "name": "",
          "type": "address"
        }
      ],
      "stateMutability": "view",
      "type": "function",
      "constant": true
    },
    {
      "inputs": [],
      "name": "getTotalRaffles",
      "outputs": [
        {
          "internalType": "uint256",
          "name": "",
          "type": "uint256"
        }
      ],
      "stateMutability": "view",
      "type": "function",
      "constant": true
    },
    {
      "inputs": [],
      "name": "getContractBalance",
      "outputs": [
        {
          "internalType": "uint256",
          "name": "",
          "type": "uint256"
        }
      ],
      "stateMutability": "view",
      "type": "function",
      "constant": true
    }
  ],
  "bytecode": "0x60a0604052611616600460146101000a81548167ffffffffffffffff021916908367ffffffffffffffff1602179055507f4b09e658ed251bcafeebbc69400383d49f344ace09b9576fe248bb02c003fe9f60001b600755620186a0600860006101000a81548163ffffffff021916908363ffffffff1602179055506003600860046101000a81548161ffff021916908361ffff1602179055506001600860066101000a81548163ffffffff021916908363ffffffff1602179055506000600b55348015620000cc57600080fd5b5033806000737a1bac17ccc5b313516c5e16fb24f7659aa5ebed8073ffffffffffffffffffffffffffffffffffffffff1660808173ffffffffffffffffffffffffffffffffffffffff168152505050600073ffffffffffffffffffffffffffffffffffffffff168273ffffffffffffffffffffffffffffffffffffffff16036200018d576040517f08c379a0000000000000000000000000000000000000000000000000000000008152600401620001849062000410565b60405180910390fd5b816000806101000a81548173ffffffffffffffffffffffffffffffffffffffff021916908373ffffffffffffffffffffffffffffffffffffffff160217905550600073ffffffffffffffffffffffffffffffffffffffff168173ffffffffffffffffffffffffffffffffffffffff1614620002145762000213816200028060201b60201c565b5b505050737a1bac17ccc5b313516c5e16fb24f7659aa5ebed600460006101000a81548173ffffffffffffffffffffffffffffffffffffffff021916908373ffffffffffffffffffffffffffffffffffffffff160217905550600460149054906101000a905050620004a4565b3373ffffffffffffffffffffffffffffffffffffffff168173ffffffffffffffffffffffffffffffffffffffff1603620002f1576040517f08c379a0000000000000000000000000000000000000000000000000000000008152600401620002e89062000482565b60405180910390fd5b80600160006101000a81548173ffffffffffffffffffffffffffffffffffffffff021916908373ffffffffffffffffffffffffffffffffffffffff1602179055508073ffffffffffffffffffffffffffffffffffffffff1660008054906101000a900473ffffffffffffffffffffffffffffffffffffffff1673ffffffffffffffffffffffffffffffffffffffff167fed8889f560326eb138920d842192f0eb3dd22b4f139c87a2c57538e05bae127860405160405180910390a350565b600082825260208201905092915050565b7f43616e6e6f7420736574206f776e657220746f207a65726f0000000000000000600082015250565b6000620003f8601883620003af565b91506200040582620003c0565b602082019050919050565b600060208201905081810360008301526200042b81620003e9565b9050919050565b7f43616e6e6f74207472616e7366657220746f2073656c66000000000000000000600082015250565b60006200046a601783620003af565b9150620004778262000432565b602082019050919050565b600060208201905081810360008301526200049d816200045b565b9050919050565b608051614fb8620004c76000396000818161086901526108bd0152614fb86000f3fe6080604052600436106101b75760003560e01c80638796ba8c116100ec578063d63fed511161008a578063f06fc96111610064578063f06fc961146106c4578063f2fde38b14610701578063f9ea23821461072a578063fc2a88c314610767576101b7565b8063d63fed5114610620578063d8a4676f14610649578063e479821414610687576101b7565b8063a168fa89116100c6578063a168fa891461052a578063a4e74daf14610568578063bb39cb5c146105a6578063bf30d790146105e3576101b7565b80638796ba8c146104855780638a56e3b9146104c25780638da5cb5b146104ff576101b7565b80634c8871fa1161015957806362617c9a1161013357806362617c9a146103c55780636f9fb98a146104035780637822be4a1461042e57806379ba50971461046e576101b7565b80634c8871fa1461032257806351b98f701461035f5780635fba31711461039c576101b7565b80631fe543e3116101955780631fe543e3146102615780632973c9b11461028a578063298ec208146102c957806338a2efbe146102e5576101b7565b80630cc7b2a9146101bc5780630ded5c36146101f9578063150b7a0214610224575b600080fd5b3480156101c857600080fd5b506101e360048036038101906101de9190613431565b610792565b6040516101f0919061346d565b60405180910390f35b34801561020557600080fd5b5061020e610848565b60405161021b919061346d565b60405180910390f35b34801561023057600080fd5b5061024b6004803603810190610246919061354b565b610852565b604051610258919061360e565b60405180910390f35b34801561026d57600080fd5b5061028860048036038101906102839190613778565b610867565b005b34801561029657600080fd5b506102b160048036038101906102ac9190613431565b610927565b6040516102c0939291906137e3565b60405180910390f35b6102e360048036038101906102de919061381a565b6109de565b005b3480156102f157600080fd5b5061030c6004803603810190610307919061385a565b610c93565b604051610319919061346d565b60405180910390f35b34801561032e57600080fd5b5061034960048036038101906103449190613a1e565b610d9c565b604051610356919061346d565b60405180910390f35b34801561036b57600080fd5b5061038660048036038101906103819190613431565b611461565b604051610393919061346d565b60405180910390f35b3480156103a857600080fd5b506103c360048036038101906103be9190613431565b6114c1565b005b3480156103d157600080fd5b506103ec60048036038101906103e79190613431565b6117cb565b6040516103fa929190613b6d565b60405180910390f35b34801561040f57600080fd5b50610418611946565b604051610425919061346d565b60405180910390f35b34801561043a57600080fd5b5061045560048036038101906104509190613431565b61194e565b6040516104659493929190613b96565b60405180910390f35b34801561047a57600080fd5b50610483611a18565b005b34801561049157600080fd5b506104ac60048036038101906104a79190613431565b611bad565b6040516104b9919061346d565b60405180910390f35b3480156104ce57600080fd5b506104e960048036038101906104e4919061381a565b611bd1565b6040516104f69190613bdb565b60405180910390f35b34801561050b57600080fd5b50610514611c13565b6040516105219190613bdb565b60405180910390f35b34801561053657600080fd5b50610551600480360381019061054c9190613431565b611c3c565b60405161055f929190613c11565b60405180910390f35b34801561057457600080fd5b5061058f600480360381019061058a9190613c3a565b611c7a565b60405161059d929190613d25565b60405180910390f35b3480156105b257600080fd5b506105cd60048036038101906105c89190613431565b611e3a565b6040516105da919061346d565b60405180910390f35b3480156105ef57600080fd5b5061060a60048036038101906106059190613431565b61218a565b604051610617919061405d565b60405180910390f35b34801561062c57600080fd5b506106476004803603810190610642919061381a565b6125c6565b005b34801561065557600080fd5b50610670600480360381019061066b9190613431565b612b99565b60405161067e92919061407f565b60405180910390f35b34801561069357600080fd5b506106ae60048036038101906106a99190613431565b612cc4565b6040516106bb919061346d565b60405180910390f35b3480156106d057600080fd5b506106eb60048036038101906106e69190613431565b612cdc565b6040516106f8919061346d565b60405180910390f35b34801561070d57600080fd5b5061072860048036038101906107239190613c3a565b612cfc565b005b34801561073657600080fd5b50610751600480360381019061074c919061381a565b612d10565b60405161075e919061346d565b60405180910390f35b34801561077357600080fd5b5061077c612d47565b604051610789919061346d565b60405180910390f35b60008060096000848152602001908152602001600020905060008160000154036107f1576040517f08c379a00000000000000000000000000000000000000000000000000000000081526004016107e89061410c565b60405180910390fd5b8060130160019054906101000a900460ff168061081c57508060130160009054906101000a900460ff165b1561082b576000915050610843565b8060120154816004015461083f919061415b565b9150505b919050565b6000600b54905090565b600063150b7a0260e01b905095945050505050565b7f000000000000000000000000000000000000000000000000000000000000000073ffffffffffffffffffffffffffffffffffffffff163373ffffffffffffffffffffffffffffffffffffffff161461091957337f00000000000000000000000000000000000000000000000000000000000000006040517f1cf993f400000000000000000000000000000000000000000000000000000000815260040161091092919061418f565b60405180910390fd5b6109238282612d4d565b5050565b600080600060096000858152602001908152602001600020600f0160009054906101000a900473ffffffffffffffffffffffffffffffffffffffff166009600086815260200190815260200160002060180160009054906101000a900473ffffffffffffffffffffffffffffffffffffffff1660096000878152602001908152602001600020600e0160009054906101000a900473ffffffffffffffffffffffffffffffffffffffff169250925092509193909250565b60006009600084815260200190815260200160002090508060130160009054906101000a900460ff1615610a47576040517f08c379a0000000000000000000000000000000000000000000000000000000008152600401610a3e90614204565b60405180910390fd5b8060130160019054906101000a900460ff1615610a99576040517f08c379a0000000000000000000000000000000000000000000000000000000008152600401610a9090614270565b60405180910390fd5b60008211610adc576040517f08c379a0000000000000000000000000000000000000000000000000000000008152600401610ad3906142dc565b60405180910390fd5b80601201548160040154610af0919061415b565b821115610b32576040517f08c379a0000000000000000000000000000000000000000000000000000000008152600401610b2990614348565b60405180910390fd5b6000816011015483610b449190614368565b905080341015610b89576040517f08c379a0000000000000000000000000000000000000000000000000000000008152600401610b809061440e565b60405180910390fd5b60005b83811015610c565760008160018560120154610ba8919061442e565b610bb2919061442e565b90508360150181908060018154018082558091505060019003906000526020600020016000909190919091505533600a6000888152602001908152602001600020600083815260200190815260200160002060006101000a81548173ffffffffffffffffffffffffffffffffffffffff021916908373ffffffffffffffffffffffffffffffffffffffff160217905550508080610c4e90614484565b915050610b8c565b5082826012016000828254610c6b919061442e565b9250508190555034826014016000828254610c86919061442e565b9250508190555050505050565b6000806000905060005b6009600085815260200190815260200160002060150180549050811015610d91578473ffffffffffffffffffffffffffffffffffffffff16600a60008681526020019081526020016000206000600960008881526020019081526020016000206015018481548110610d1257610d116144cc565b5b9060005260206000200154815260200190815260200160002060009054906101000a900473ffffffffffffffffffffffffffffffffffffffff1673ffffffffffffffffffffffffffffffffffffffff1603610d7e57610d7b600183612e4790919063ffffffff16565b91505b8080610d8990614484565b915050610c9d565b508091505092915050565b60008073ffffffffffffffffffffffffffffffffffffffff168573ffffffffffffffffffffffffffffffffffffffff1603610e0c576040517f08c379a0000000000000000000000000000000000000000000000000000000008152600401610e0390614547565b60405180910390fd5b428711610e4e576040517f08c379a0000000000000000000000000000000000000000000000000000000008152600401610e45906145b3565b60405180910390fd5b60008590508073ffffffffffffffffffffffffffffffffffffffff16636352211e886040518263ffffffff1660e01b8152600401610e8c919061346d565b602060405180830381865afa158015610ea9573d6000803e3d6000fd5b505050506040513d601f19601f82011682018060405250810190610ecd91906145e8565b73ffffffffffffffffffffffffffffffffffffffff163373ffffffffffffffffffffffffffffffffffffffff1614610f3a576040517f08c379a0000000000000000000000000000000000000000000000000000000008152600401610f3190614661565b60405180910390fd5b8073ffffffffffffffffffffffffffffffffffffffff166342842e0e33308a6040518463ffffffff1660e01b8152600401610f7793929190614681565b600060405180830381600087803b158015610f9157600080fd5b505af1158015610fa5573d6000803e3d6000fd5b50505050600b6000815480929190610fbc90614484565b9190505550604051806102c00160405280600b5481526020018d81526020018c81526020018b81526020018a81526020018981526020018881526020018681526020018773ffffffffffffffffffffffffffffffffffffffff1681526020018581526020018473ffffffffffffffffffffffffffffffffffffffff1681526020013373ffffffffffffffffffffffffffffffffffffffff168152602001611080606461107260968f612e5d90919063ffffffff16565b612e7390919063ffffffff16565b8152602001600081526020016000815260200160001515815260200160001515815260200160008152602001600067ffffffffffffffff8111156110c7576110c661363a565b5b6040519080825280602002602001820160405280156110f55781602001602082028036833780820191505090505b50815260200160008152602001600073ffffffffffffffffffffffffffffffffffffffff168152602001731eb43ebde750c57aacee85777e7c063218b0e1b473ffffffffffffffffffffffffffffffffffffffff1681525060096000600b548152602001908152602001600020600082015181600001556020820151816001019080519060200190611188929190613125565b5060408201518160020190805190602001906111a5929190613125565b50606082015181600301556080820151816004015560a0820151816005015560c0820151816006015560e0820151816007019060056111e59291906131ab565b5061010082015181600c0160006101000a81548173ffffffffffffffffffffffffffffffffffffffff021916908373ffffffffffffffffffffffffffffffffffffffff16021790555061012082015181600d01908051906020019061124b929190613125565b5061014082015181600e0160006101000a81548173ffffffffffffffffffffffffffffffffffffffff021916908373ffffffffffffffffffffffffffffffffffffffff16021790555061016082015181600f0160006101000a81548173ffffffffffffffffffffffffffffffffffffffff021916908373ffffffffffffffffffffffffffffffffffffffff16021790555061018082015181601001556101a082015181601101556101c082015181601201556101e08201518160130160006101000a81548160ff0219169083151502179055506102008201518160130160016101000a81548160ff02191690831515021790555061022082015181601401556102408201518160150190805190602001906113679291906131fe565b5061026082015181601601556102808201518160170160006101000a81548173ffffffffffffffffffffffffffffffffffffffff021916908373ffffffffffffffffffffffffffffffffffffffff1602179055506102a08201518160180160006101000a81548173ffffffffffffffffffffffffffffffffffffffff021916908373ffffffffffffffffffffffffffffffffffffffff1602179055509050506114318960096000600b54815260200190815260200160002060100154612e7390919063ffffffff16565b60096000600b54815260200190815260200160002060110181905550600b549150509a9950505050505050505050565b600060026000838152602001908152602001600020549050600081036114bc576040517f08c379a00000000000000000000000000000000000000000000000000000000081526004016114b390614704565b60405180910390fd5b919050565b600060096000838152602001908152602001600020905080600f0160009054906101000a900473ffffffffffffffffffffffffffffffffffffffff1673ffffffffffffffffffffffffffffffffffffffff163373ffffffffffffffffffffffffffffffffffffffff161461156a576040517f08c379a000000000000000000000000000000000000000000000000000000000815260040161156190614796565b60405180910390fd5b8060130160019054906101000a900460ff16156115bc576040517f08c379a00000000000000000000000000000000000000000000000000000000081526004016115b390614802565b60405180910390fd5b60005b81601501805490508110156116d15760008260150182815481106115e6576115e56144cc565b5b906000526020600020015490506000600a6000868152602001908152602001600020600083815260200190815260200160002060009054906101000a900473ffffffffffffffffffffffffffffffffffffffff169050600073ffffffffffffffffffffffffffffffffffffffff168173ffffffffffffffffffffffffffffffffffffffff16146116bc578073ffffffffffffffffffffffffffffffffffffffff166108fc85601101549081150290604051600060405180830381858888f193505050501580156116ba573d6000803e3d6000fd5b505b505080806116c990614484565b9150506115bf565b5080600c0160009054906101000a900473ffffffffffffffffffffffffffffffffffffffff1673ffffffffffffffffffffffffffffffffffffffff166342842e0e3083600f0160009054906101000a900473ffffffffffffffffffffffffffffffffffffffff1684600601546040518463ffffffff1660e01b815260040161175b93929190614681565b600060405180830381600087803b15801561177557600080fd5b505af1158015611789573d6000803e3d6000fd5b5050505060018160130160006101000a81548160ff02191690831515021790555060018160130160016101000a81548160ff0219169083151502179055505050565b6000806009600084815260200190815260200160002060130160009054906101000a900460ff1615611832576040517f08c379a00000000000000000000000000000000000000000000000000000000081526004016118299061486e565b60405180910390fd5b6009600084815260200190815260200160002060130160019054906101000a900460ff1615611896576040517f08c379a000000000000000000000000000000000000000000000000000000000815260040161188d90614802565b60405180910390fd5b60006009600085815260200190815260200160002060160154036118ef576040517f08c379a00000000000000000000000000000000000000000000000000000000081526004016118e6906148da565b60405180910390fd5b6009600084815260200190815260200160002060170160009054906101000a900473ffffffffffffffffffffffffffffffffffffffff16600960008581526020019081526020016000206016015491509150915091565b600047905090565b6000806000806000600960008781526020019081526020016000206010015490506000611998606461198a600585612e5d90919063ffffffff16565b612e7390919063ffffffff16565b60096000898152602001908152602001600020600301546119b9919061442e565b905060006119e460646119d6600586612e5d90919063ffffffff16565b612e7390919063ffffffff16565b905060008183856119f5919061415b565b6119ff919061415b565b9050838383839750975097509750505050509193509193565b600160009054906101000a900473ffffffffffffffffffffffffffffffffffffffff1673ffffffffffffffffffffffffffffffffffffffff163373ffffffffffffffffffffffffffffffffffffffff1614611aa8576040517f08c379a0000000000000000000000000000000000000000000000000000000008152600401611a9f90614946565b60405180910390fd5b60008060009054906101000a900473ffffffffffffffffffffffffffffffffffffffff169050336000806101000a81548173ffffffffffffffffffffffffffffffffffffffff021916908373ffffffffffffffffffffffffffffffffffffffff1602179055506000600160006101000a81548173ffffffffffffffffffffffffffffffffffffffff021916908373ffffffffffffffffffffffffffffffffffffffff1602179055503373ffffffffffffffffffffffffffffffffffffffff168173ffffffffffffffffffffffffffffffffffffffff167f8be0079c531659141344cd1fd0a4f28419497f9722a3daafe3b4186f6b6457e060405160405180910390a350565b60058181548110611bbd57600080fd5b906000526020600020016000915090505481565b600a6020528160005260406000206020528060005260406000206000915091509054906101000a900473ffffffffffffffffffffffffffffffffffffffff1681565b60008060009054906101000a900473ffffffffffffffffffffffffffffffffffffffff16905090565b60036020528060005260406000206000915090508060000160009054906101000a900460ff16908060000160019054906101000a900460ff16905082565b600060606000600b5467ffffffffffffffff811115611c9c57611c9b61363a565b5b604051908082528060200260200182016040528015611cca5781602001602082028036833780820191505090505b5090506000805b600b548111611d85578573ffffffffffffffffffffffffffffffffffffffff1660096000838152602001908152602001600020600f0160009054906101000a900473ffffffffffffffffffffffffffffffffffffffff1673ffffffffffffffffffffffffffffffffffffffff1603611d725780838381518110611d5757611d566144cc565b5b6020026020010181815250508180611d6e90614484565b9250505b8080611d7d90614484565b915050611cd1565b5060008167ffffffffffffffff811115611da257611da161363a565b5b604051908082528060200260200182016040528015611dd05781602001602082028036833780820191505090505b50905060005b82811015611e2b57838181518110611df157611df06144cc565b5b6020026020010151828281518110611e0c57611e0b6144cc565b5b6020026020010181815250508080611e2390614484565b915050611dd6565b50818194509450505050915091565b6000806009600084815260200190815260200160002060120154905060008111611e99576040517f08c379a0000000000000000000000000000000000000000000000000000000008152600401611e90906149b2565b60405180910390fd5b606460506009600086815260200190815260200160002060040154611ebe9190614368565b611ec89190614a01565b60096000858152602001908152602001600020601201541015611f20576040517f08c379a0000000000000000000000000000000000000000000000000000000008152600401611f1790614a7e565b60405180910390fd5b600460009054906101000a900473ffffffffffffffffffffffffffffffffffffffff1673ffffffffffffffffffffffffffffffffffffffff16635d3b1d30600754600460149054906101000a900467ffffffffffffffff16600860049054906101000a900461ffff16600860009054906101000a900463ffffffff16600860069054906101000a900463ffffffff166040518663ffffffff1660e01b8152600401611fcf959493929190614b16565b6020604051808303816000875af1158015611fee573d6000803e3d6000fd5b505050506040513d601f19601f820116820180604052508101906120129190614b7e565b91506040518060600160405280600015158152602001600115158152602001600067ffffffffffffffff81111561204c5761204b61363a565b5b60405190808252806020026020018201604052801561207a5781602001602082028036833780820191505090505b508152506003600084815260200190815260200160002060008201518160000160006101000a81548160ff02191690831515021790555060208201518160000160016101000a81548160ff02191690831515021790555060408201518160010190805190602001906120ed9291906131fe565b509050508160026000858152602001908152602001600020819055506005829080600181540180825580915050600190039060005260206000200160009091909190915055816006819055507fcc58b13ad3eab50626c6a6300b1d139cd6ebb1688a7cced9461c2f7e762665ee82600860069054906101000a900463ffffffff1660405161217c929190614bab565b60405180910390a150919050565b61219261324b565b600060096000848152602001908152602001600020905060006040518061026001604052808581526020018360010180546121cc90614c03565b80601f01602080910402602001604051908101604052809291908181526020018280546121f890614c03565b80156122455780601f1061221a57610100808354040283529160200191612245565b820191906000526020600020905b81548152906001019060200180831161222857829003601f168201915b5050505050815260200183600201805461225e90614c03565b80601f016020809104026020016040519081016040528092919081815260200182805461228a90614c03565b80156122d75780601f106122ac576101008083540402835291602001916122d7565b820191906000526020600020905b8154815290600101906020018083116122ba57829003601f168201915b5050505050815260200183600701600580602002604051908101604052809291906000905b8282101561239f57838201805461231290614c03565b80601f016020809104026020016040519081016040528092919081815260200182805461233e90614c03565b801561238b5780601f106123605761010080835404028352916020019161238b565b820191906000526020600020905b81548152906001019060200180831161236e57829003601f168201915b5050505050815260200190600101906122fc565b5050505081526020018360030154815260200183600401548152602001836005015481526020018360060154815260200183600c0160009054906101000a900473ffffffffffffffffffffffffffffffffffffffff1673ffffffffffffffffffffffffffffffffffffffff16815260200183600d01805461241f90614c03565b80601f016020809104026020016040519081016040528092919081815260200182805461244b90614c03565b80156124985780601f1061246d57610100808354040283529160200191612498565b820191906000526020600020905b81548152906001019060200180831161247b57829003601f168201915b5050505050815260200183600e0160009054906101000a900473ffffffffffffffffffffffffffffffffffffffff1673ffffffffffffffffffffffffffffffffffffffff16815260200183600f0160009054906101000a900473ffffffffffffffffffffffffffffffffffffffff1673ffffffffffffffffffffffffffffffffffffffff168152602001836010015481526020018360110154815260200183601201548152602001836016015481526020018360170160009054906101000a900473ffffffffffffffffffffffffffffffffffffffff1673ffffffffffffffffffffffffffffffffffffffff1681526020018360130160009054906101000a900460ff16151581526020018360130160019054906101000a900460ff16151581525090508092505050919050565b60006009600084815260200190815260200160002090508060130160009054906101000a900460ff161561262f576040517f08c379a00000000000000000000000000000000000000000000000000000000081526004016126269061486e565b60405180910390fd5b8060130160019054906101000a900460ff1615612681576040517f08c379a000000000000000000000000000000000000000000000000000000000815260040161267890614802565b60405180910390fd5b6064605082600401546126949190614368565b61269e9190614a01565b816012015410156126e4576040517f08c379a00000000000000000000000000000000000000000000000000000000081526004016126db90614c80565b60405180910390fd5b3373ffffffffffffffffffffffffffffffffffffffff1681600f0160009054906101000a900473ffffffffffffffffffffffffffffffffffffffff1673ffffffffffffffffffffffffffffffffffffffff1614612776576040517f08c379a000000000000000000000000000000000000000000000000000000000815260040161276d90614cec565b60405180910390fd5b60006127828484612e89565b905060008190506000600a6000878152602001908152602001600020600083815260200190815260200160002060009054906101000a900473ffffffffffffffffffffffffffffffffffffffff169050600073ffffffffffffffffffffffffffffffffffffffff168173ffffffffffffffffffffffffffffffffffffffff1603612841576040517f08c379a000000000000000000000000000000000000000000000000000000000815260040161283890614d58565b60405180910390fd5b808460170160006101000a81548173ffffffffffffffffffffffffffffffffffffffff021916908373ffffffffffffffffffffffffffffffffffffffff160217905550857f37a30a31c187f323329351db43159a5b3c2dde95e0f21f061360aa03aa5415b783836040516128b6929190614d78565b60405180910390a2600060096000888152602001908152602001600020601001549050600061290260646128f4600585612e5d90919063ffffffff16565b612e7390919063ffffffff16565b600960008a815260200190815260200160002060030154612923919061442e565b9050600061294e6064612940600586612e5d90919063ffffffff16565b612e7390919063ffffffff16565b9050600081838561295f919061415b565b612969919061415b565b905087600f0160009054906101000a900473ffffffffffffffffffffffffffffffffffffffff1673ffffffffffffffffffffffffffffffffffffffff166108fc849081150290604051600060405180830381858888f193505050501580156129d5573d6000803e3d6000fd5b508760180160009054906101000a900473ffffffffffffffffffffffffffffffffffffffff1673ffffffffffffffffffffffffffffffffffffffff166108fc839081150290604051600060405180830381858888f19350505050158015612a40573d6000803e3d6000fd5b5087600e0160009054906101000a900473ffffffffffffffffffffffffffffffffffffffff1673ffffffffffffffffffffffffffffffffffffffff166108fc829081150290604051600060405180830381858888f19350505050158015612aab573d6000803e3d6000fd5b5087600c0160009054906101000a900473ffffffffffffffffffffffffffffffffffffffff1673ffffffffffffffffffffffffffffffffffffffff166342842e0e30878b600601546040518463ffffffff1660e01b8152600401612b1193929190614681565b600060405180830381600087803b158015612b2b57600080fd5b505af1158015612b3f573d6000803e3d6000fd5b5050505060018860130160016101000a81548160ff021916908315150217905550897f1de299c7214202a224cf78dcd7adac60eac743ba8a2cc84012e96c5a048edfd660405160405180910390a250505050505050505050565b600060606003600084815260200190815260200160002060000160019054906101000a900460ff16612c00576040517f08c379a0000000000000000000000000000000000000000000000000000000008152600401612bf790614ded565b60405180910390fd5b6000600360008581526020019081526020016000206040518060600160405290816000820160009054906101000a900460ff161515151581526020016000820160019054906101000a900460ff1615151515815260200160018201805480602002602001604051908101604052809291908181526020018280548015612ca557602002820191906000526020600020905b815481526020019060010190808311612c91575b5050505050815250509050806000015181604001519250925050915091565b60026020528060005260406000206000915090505481565b600060096000838152602001908152602001600020601101549050919050565b612d04612f69565b612d0d81612ff9565b50565b6000806009600085815260200190815260200160002090506000816011015484612d3a9190614368565b9050809250505092915050565b60065481565b6003600083815260200190815260200160002060000160019054906101000a900460ff16612db0576040517f08c379a0000000000000000000000000000000000000000000000000000000008152600401612da790614ded565b60405180910390fd5b60016003600084815260200190815260200160002060000160006101000a81548160ff02191690831515021790555080600360008481526020019081526020016000206001019080519060200190612e099291906131fe565b507ffe2e2d779dba245964d4e3ef9b994be63856fd568bf7d3ca9e224755cb1bd54d8282604051612e3b929190613d25565b60405180910390a15050565b60008183612e55919061442e565b905092915050565b60008183612e6b9190614368565b905092915050565b60008183612e819190614a01565b905092915050565b60006003600083815260200190815260200160002060000160009054906101000a900460ff16612eee576040517f08c379a0000000000000000000000000000000000000000000000000000000008152600401612ee590614e59565b60405180910390fd5b600060036000848152602001908152602001600020600101600081548110612f1957612f186144cc565b5b906000526020600020015490506000600960008681526020019081526020016000206012015482612f4a9190614e79565b90506000600182612f5b919061442e565b905080935050505092915050565b60008054906101000a900473ffffffffffffffffffffffffffffffffffffffff1673ffffffffffffffffffffffffffffffffffffffff163373ffffffffffffffffffffffffffffffffffffffff1614612ff7576040517f08c379a0000000000000000000000000000000000000000000000000000000008152600401612fee90614ef6565b60405180910390fd5b565b3373ffffffffffffffffffffffffffffffffffffffff168173ffffffffffffffffffffffffffffffffffffffff1603613067576040517f08c379a000000000000000000000000000000000000000000000000000000000815260040161305e90614f62565b60405180910390fd5b80600160006101000a81548173ffffffffffffffffffffffffffffffffffffffff021916908373ffffffffffffffffffffffffffffffffffffffff1602179055508073ffffffffffffffffffffffffffffffffffffffff1660008054906101000a900473ffffffffffffffffffffffffffffffffffffffff1673ffffffffffffffffffffffffffffffffffffffff167fed8889f560326eb138920d842192f0eb3dd22b4f139c87a2c57538e05bae127860405160405180910390a350565b82805461313190614c03565b90600052602060002090601f016020900481019282613153576000855561319a565b82601f1061316c57805160ff191683800117855561319a565b8280016001018555821561319a579182015b8281111561319957825182559160200191906001019061317e565b5b5090506131a7919061333f565b5090565b82600581019282156131ed579160200282015b828111156131ec5782518290805190602001906131dc929190613125565b50916020019190600101906131be565b5b5090506131fa919061335c565b5090565b82805482825590600052602060002090810192821561323a579160200282015b8281111561323957825182559160200191906001019061321e565b5b509050613247919061333f565b5090565b604051806102600160405280600081526020016060815260200160608152602001613274613380565b815260200160008152602001600081526020016000815260200160008152602001600073ffffffffffffffffffffffffffffffffffffffff16815260200160608152602001600073ffffffffffffffffffffffffffffffffffffffff168152602001600073ffffffffffffffffffffffffffffffffffffffff16815260200160008152602001600081526020016000815260200160008152602001600073ffffffffffffffffffffffffffffffffffffffff1681526020016000151581526020016000151581525090565b5b80821115613358576000816000905550600101613340565b5090565b5b8082111561337c576000818161337391906133a7565b5060010161335d565b5090565b6040518060a001604052806005905b606081526020019060019003908161338f5790505090565b5080546133b390614c03565b6000825580601f106133c557506133e4565b601f0160209004906000526020600020908101906133e3919061333f565b5b50565b6000604051905090565b600080fd5b600080fd5b6000819050919050565b61340e816133fb565b811461341957600080fd5b50565b60008135905061342b81613405565b92915050565b600060208284031215613447576134466133f1565b5b60006134558482850161341c565b91505092915050565b613467816133fb565b82525050565b6000602082019050613482600083018461345e565b92915050565b600073ffffffffffffffffffffffffffffffffffffffff82169050919050565b60006134b382613488565b9050919050565b6134c3816134a8565b81146134ce57600080fd5b50565b6000813590506134e0816134ba565b92915050565b600080fd5b600080fd5b600080fd5b60008083601f84011261350b5761350a6134e6565b5b8235905067ffffffffffffffff811115613528576135276134eb565b5b602083019150836001820283011115613544576135436134f0565b5b9250929050565b600080600080600060808688031215613567576135666133f1565b5b6000613575888289016134d1565b9550506020613586888289016134d1565b94505060406135978882890161341c565b935050606086013567ffffffffffffffff8111156135b8576135b76133f6565b5b6135c4888289016134f5565b92509250509295509295909350565b60007fffffffff0000000000000000000000000000000000000000000000000000000082169050919050565b613608816135d3565b82525050565b600060208201905061362360008301846135ff565b92915050565b6000601f19601f8301169050919050565b7f4e487b7100000000000000000000000000000000000000000000000000000000600052604160045260246000fd5b61367282613629565b810181811067ffffffffffffffff821117156136915761369061363a565b5b80604052505050565b60006136a46133e7565b90506136b08282613669565b919050565b600067ffffffffffffffff8211156136d0576136cf61363a565b5b602082029050602081019050919050565b60006136f46136ef846136b5565b61369a565b90508083825260208201905060208402830185811115613717576137166134f0565b5b835b81811015613740578061372c888261341c565b845260208401935050602081019050613719565b5050509392505050565b600082601f83011261375f5761375e6134e6565b5b813561376f8482602086016136e1565b91505092915050565b6000806040838503121561378f5761378e6133f1565b5b600061379d8582860161341c565b925050602083013567ffffffffffffffff8111156137be576137bd6133f6565b5b6137ca8582860161374a565b9150509250929050565b6137dd816134a8565b82525050565b60006060820190506137f860008301866137d4565b61380560208301856137d4565b61381260408301846137d4565b949350505050565b60008060408385031215613831576138306133f1565b5b600061383f8582860161341c565b92505060206138508582860161341c565b9150509250929050565b60008060408385031215613871576138706133f1565b5b600061387f858286016134d1565b92505060206138908582860161341c565b9150509250929050565b600080fd5b600067ffffffffffffffff8211156138ba576138b961363a565b5b6138c382613629565b9050602081019050919050565b82818337600083830152505050565b60006138f26138ed8461389f565b61369a565b90508281526020810184848401111561390e5761390d61389a565b5b6139198482856138d0565b509392505050565b600082601f830112613936576139356134e6565b5b81356139468482602086016138df565b91505092915050565b600067ffffffffffffffff82111561396a5761396961363a565b5b602082029050919050565b60006139886139838461394f565b61369a565b905080602084028301858111156139a2576139a16134f0565b5b835b818110156139e957803567ffffffffffffffff8111156139c7576139c66134e6565b5b8086016139d48982613921565b855260208501945050506020810190506139a4565b5050509392505050565b600082601f830112613a0857613a076134e6565b5b6005613a15848285613975565b91505092915050565b6000806000806000806000806000806101408b8d031215613a4257613a416133f1565b5b60008b013567ffffffffffffffff811115613a6057613a5f6133f6565b5b613a6c8d828e01613921565b9a505060208b013567ffffffffffffffff811115613a8d57613a8c6133f6565b5b613a998d828e01613921565b9950506040613aaa8d828e0161341c565b9850506060613abb8d828e0161341c565b9750506080613acc8d828e0161341c565b96505060a0613add8d828e0161341c565b95505060c0613aee8d828e016134d1565b94505060e08b013567ffffffffffffffff811115613b0f57613b0e6133f6565b5b613b1b8d828e016139f3565b9350506101008b013567ffffffffffffffff811115613b3d57613b3c6133f6565b5b613b498d828e01613921565b925050610120613b5b8d828e016134d1565b9150509295989b9194979a5092959850565b6000604082019050613b8260008301856137d4565b613b8f602083018461345e565b9392505050565b6000608082019050613bab600083018761345e565b613bb8602083018661345e565b613bc5604083018561345e565b613bd2606083018461345e565b95945050505050565b6000602082019050613bf060008301846137d4565b92915050565b60008115159050919050565b613c0b81613bf6565b82525050565b6000604082019050613c266000830185613c02565b613c336020830184613c02565b9392505050565b600060208284031215613c5057613c4f6133f1565b5b6000613c5e848285016134d1565b91505092915050565b600081519050919050565b600082825260208201905092915050565b6000819050602082019050919050565b613c9c816133fb565b82525050565b6000613cae8383613c93565b60208301905092915050565b6000602082019050919050565b6000613cd282613c67565b613cdc8185613c72565b9350613ce783613c83565b8060005b83811015613d18578151613cff8882613ca2565b9750613d0a83613cba565b925050600181019050613ceb565b5085935050505092915050565b6000604082019050613d3a600083018561345e565b8181036020830152613d4c8184613cc7565b90509392505050565b600081519050919050565b600082825260208201905092915050565b60005b83811015613d8f578082015181840152602081019050613d74565b83811115613d9e576000848401525b50505050565b6000613daf82613d55565b613db98185613d60565b9350613dc9818560208601613d71565b613dd281613629565b840191505092915050565b600060059050919050565b600081905092915050565b6000819050919050565b6000613e098383613da4565b905092915050565b6000602082019050919050565b6000613e2982613ddd565b613e338185613de8565b935083602082028501613e4585613df3565b8060005b85811015613e815784840389528151613e628582613dfd565b9450613e6d83613e11565b925060208a01995050600181019050613e49565b50829750879550505050505092915050565b613e9c816134a8565b82525050565b613eab81613bf6565b82525050565b600061026083016000830151613eca6000860182613c93565b5060208301518482036020860152613ee28282613da4565b91505060408301518482036040860152613efc8282613da4565b91505060608301518482036060860152613f168282613e1e565b9150506080830151613f2b6080860182613c93565b5060a0830151613f3e60a0860182613c93565b5060c0830151613f5160c0860182613c93565b5060e0830151613f6460e0860182613c93565b50610100830151613f79610100860182613e93565b50610120830151848203610120860152613f938282613da4565b915050610140830151613faa610140860182613e93565b50610160830151613fbf610160860182613e93565b50610180830151613fd4610180860182613c93565b506101a0830151613fe96101a0860182613c93565b506101c0830151613ffe6101c0860182613c93565b506101e08301516140136101e0860182613c93565b50610200830151614028610200860182613e93565b5061022083015161403d610220860182613ea2565b50610240830151614052610240860182613ea2565b508091505092915050565b600060208201905081810360008301526140778184613eb1565b905092915050565b60006040820190506140946000830185613c02565b81810360208301526140a68184613cc7565b90509392505050565b600082825260208201905092915050565b7f526166666c65206e6f7420666f756e6400000000000000000000000000000000600082015250565b60006140f66010836140af565b9150614101826140c0565b602082019050919050565b60006020820190508181036000830152614125816140e9565b9050919050565b7f4e487b7100000000000000000000000000000000000000000000000000000000600052601160045260246000fd5b6000614166826133fb565b9150614171836133fb565b9250828210156141845761418361412c565b5b828203905092915050565b60006040820190506141a460008301856137d4565b6141b160208301846137d4565b9392505050565b7f526166666c652069732063616e63656c6c656400000000000000000000000000600082015250565b60006141ee6013836140af565b91506141f9826141b8565b602082019050919050565b6000602082019050818103600083015261421d816141e1565b9050919050565b7f526166666c6520697320656e6465640000000000000000000000000000000000600082015250565b600061425a600f836140af565b915061426582614224565b602082019050919050565b600060208201905081810360008301526142898161424d565b9050919050565b7f496e76616c6964206e756d626572206f66207469636b65747300000000000000600082015250565b60006142c66019836140af565b91506142d182614290565b602082019050919050565b600060208201905081810360008301526142f5816142b9565b9050919050565b7f4e6f7420656e6f756768207469636b65747320617661696c61626c6500000000600082015250565b6000614332601c836140af565b915061433d826142fc565b602082019050919050565b6000602082019050818103600083015261436181614325565b9050919050565b6000614373826133fb565b915061437e836133fb565b9250817fffffffffffffffffffffffffffffffffffffffffffffffffffffffffffffffff04831182151516156143b7576143b661412c565b5b828202905092915050565b7f496e636f7272656374207061796d656e7420616d6f756e740000000000000000600082015250565b60006143f86018836140af565b9150614403826143c2565b602082019050919050565b60006020820190508181036000830152614427816143eb565b9050919050565b6000614439826133fb565b9150614444836133fb565b9250827fffffffffffffffffffffffffffffffffffffffffffffffffffffffffffffffff038211156144795761447861412c565b5b828201905092915050565b600061448f826133fb565b91507fffffffffffffffffffffffffffffffffffffffffffffffffffffffffffffffff82036144c1576144c061412c565b5b600182019050919050565b7f4e487b7100000000000000000000000000000000000000000000000000000000600052603260045260246000fd5b7f496e76616c6964204e465420636f6e7472616374206164647265737300000000600082015250565b6000614531601c836140af565b915061453c826144fb565b602082019050919050565b6000602082019050818103600083015261456081614524565b9050919050565b7f456e642074696d65206d75737420626520696e20667574757265000000000000600082015250565b600061459d601a836140af565b91506145a882614567565b602082019050919050565b600060208201905081810360008301526145cc81614590565b9050919050565b6000815190506145e2816134ba565b92915050565b6000602082840312156145fe576145fd6133f1565b5b600061460c848285016145d3565b91505092915050565b7f4f6e6c79204e4654206f776e65722063616e2063726561746520726166666c65600082015250565b600061464b6020836140af565b915061465682614615565b602082019050919050565b6000602082019050818103600083015261467a8161463e565b9050919050565b600060608201905061469660008301866137d4565b6146a360208301856137d4565b6146b0604083018461345e565b949350505050565b7f4e6f207265717565737420666f72207468697320696400000000000000000000600082015250565b60006146ee6016836140af565b91506146f9826146b8565b602082019050919050565b6000602082019050818103600083015261471d816146e1565b9050919050565b7f4f6e6c7920726166666c652063726561746f722063616e2063616e63656c207460008201527f6865206c6f747465727900000000000000000000000000000000000000000000602082015250565b6000614780602a836140af565b915061478b82614724565b604082019050919050565b600060208201905081810360008301526147af81614773565b9050919050565b7f526166666c652068617320616c726561647920656e6465640000000000000000600082015250565b60006147ec6018836140af565b91506147f7826147b6565b602082019050919050565b6000602082019050818103600083015261481b816147df565b9050919050565b7f526166666c6520686173206265656e2063616e63656c6c656400000000000000600082015250565b60006148586019836140af565b915061486382614822565b602082019050919050565b600060208201905081810360008301526148878161484b565b9050919050565b7f57696e6e657220686173206e6f74206265656e207069636b6564207965740000600082015250565b60006148c4601e836140af565b91506148cf8261488e565b602082019050919050565b600060208201905081810360008301526148f3816148b7565b9050919050565b7f4d7573742062652070726f706f736564206f776e657200000000000000000000600082015250565b60006149306016836140af565b915061493b826148fa565b602082019050919050565b6000602082019050818103600083015261495f81614923565b9050919050565b7f4e6f207469636b65747320736f6c642079657400000000000000000000000000600082015250565b600061499c6013836140af565b91506149a782614966565b602082019050919050565b600060208201905081810360008301526149cb8161498f565b9050919050565b7f4e487b7100000000000000000000000000000000000000000000000000000000600052601260045260246000fd5b6000614a0c826133fb565b9150614a17836133fb565b925082614a2757614a266149d2565b5b828204905092915050565b7f4e6f7420656e6f756768207469636b657420736f6c6400000000000000000000600082015250565b6000614a686016836140af565b9150614a7382614a32565b602082019050919050565b60006020820190508181036000830152614a9781614a5b565b9050919050565b6000819050919050565b614ab181614a9e565b82525050565b600067ffffffffffffffff82169050919050565b614ad481614ab7565b82525050565b600061ffff82169050919050565b614af181614ada565b82525050565b600063ffffffff82169050919050565b614b1081614af7565b82525050565b600060a082019050614b2b6000830188614aa8565b614b386020830187614acb565b614b456040830186614ae8565b614b526060830185614b07565b614b5f6080830184614b07565b9695505050505050565b600081519050614b7881613405565b92915050565b600060208284031215614b9457614b936133f1565b5b6000614ba284828501614b69565b91505092915050565b6000604082019050614bc0600083018561345e565b614bcd6020830184614b07565b9392505050565b7f4e487b7100000000000000000000000000000000000000000000000000000000600052602260045260246000fd5b60006002820490506001821680614c1b57607f821691505b602082108103614c2e57614c2d614bd4565b5b50919050565b7f526166666c652063616e277420626520636f6d706c6574656420796574000000600082015250565b6000614c6a601d836140af565b9150614c7582614c34565b602082019050919050565b60006020820190508181036000830152614c9981614c5d565b9050919050565b7f796f7520617265206e6f742074686520726166666c65206f776e657200000000600082015250565b6000614cd6601c836140af565b9150614ce182614ca0565b602082019050919050565b60006020820190508181036000830152614d0581614cc9565b9050919050565b7f57696e6e657220686173206e6f74206265656e2073656c656374656420796574600082015250565b6000614d426020836140af565b9150614d4d82614d0c565b602082019050919050565b60006020820190508181036000830152614d7181614d35565b9050919050565b6000604082019050614d8d600083018561345e565b614d9a60208301846137d4565b9392505050565b7f72657175657374206e6f7420666f756e64000000000000000000000000000000600082015250565b6000614dd76011836140af565b9150614de282614da1565b602082019050919050565b60006020820190508181036000830152614e0681614dca565b9050919050565b7f52657175657374206e6f742066756c66696c6c65642079657400000000000000600082015250565b6000614e436019836140af565b9150614e4e82614e0d565b602082019050919050565b60006020820190508181036000830152614e7281614e36565b9050919050565b6000614e84826133fb565b9150614e8f836133fb565b925082614e9f57614e9e6149d2565b5b828206905092915050565b7f4f6e6c792063616c6c61626c65206279206f776e657200000000000000000000600082015250565b6000614ee06016836140af565b9150614eeb82614eaa565b602082019050919050565b60006020820190508181036000830152614f0f81614ed3565b9050919050565b7f43616e6e6f74207472616e7366657220746f2073656c66000000000000000000600082015250565b6000614f4c6017836140af565b9150614f5782614f16565b602082019050919050565b60006020820190508181036000830152614f7b81614f3f565b905091905056fea2646970667358221220cc9d7123d7d706dc414057a2c03a9a4a409d500a3c798630a424f1a12e37c39c64736f6c634300080e0033",
  "immutableReferences": {
    "192": [
      {
        "length": 32,
        "start": 2153
      },
      {
        "length": 32,
        "start": 2237
      }
    ]
  },
  "source": "// SPDX-License-Identifier: MIT\npragma solidity ^0.8.0;\n\nimport \"@openzeppelin/contracts/token/ERC721/IERC721.sol\";\nimport \"@openzeppelin/contracts/utils/math/SafeMath.sol\";\nimport \"@openzeppelin/contracts/token/ERC721/IERC721Receiver.sol\";\nimport \"@chainlink/contracts/src/v0.8/interfaces/VRFCoordinatorV2Interface.sol\";\nimport \"@chainlink/contracts/src/v0.8/VRFConsumerBaseV2.sol\";\nimport \"@chainlink/contracts/src/v0.8/ConfirmedOwner.sol\";\n\ncontract mainNftRaffle is IERC721Receiver, VRFConsumerBaseV2, ConfirmedOwner {\n\n    using SafeMath for uint256;\n\n    mapping(uint256 => uint256) public raffleIdToRequestId;\n    event RequestSent(uint256 requestId, uint32 numWords);\n    event RequestFulfilled(uint256 requestId, uint256[] randomWords);\n\n    struct RequestStatus {\n        bool fulfilled; // whether the request has been successfully fulfilled\n        bool exists; // whether a requestId exists\n        uint256[] randomWords;\n    }\n    mapping(uint256 => RequestStatus)\n        public s_requests; /* requestId --> requestStatus */\n    VRFCoordinatorV2Interface COORDINATOR;\n\n    event WinnerSelected(\n        uint256 indexed raffleId,\n        uint256 winningTicketNumber,\n        address winningTicketOwner\n    );\n\n    // Your subscription ID.\n    uint64 s_subscriptionId = 5654;\n\n    // past requests Id.\n    uint256[] public requestIds;\n    uint256 public lastRequestId;\n\n    bytes32 keyHash =\n        0x4b09e658ed251bcafeebbc69400383d49f344ace09b9576fe248bb02c003fe9f;\n\n    uint32 callbackGasLimit = 100000;\n\n    // The default is 3, but you can set this higher.\n    uint16 requestConfirmations = 3;\n\n    // For this example, retrieve 2 random values in one request.\n    // Cannot exceed VRFCoordinatorV2.MAX_NUM_WORDS.\n    uint32 numWords = 1;\n\n    /**\n     * COORDINATOR: 0x7a1BaC17Ccc5b313516C5E16fb24f7659aA5ebed\n     */\n    constructor()\n        VRFConsumerBaseV2(0x7a1BaC17Ccc5b313516C5E16fb24f7659aA5ebed)\n        ConfirmedOwner(msg.sender)\n    {\n        COORDINATOR = VRFCoordinatorV2Interface(\n            0x7a1BaC17Ccc5b313516C5E16fb24f7659aA5ebed\n        );\n        s_subscriptionId;\n    }\n\n    struct Raffle {\n        uint raffleId;\n        string raffleName;\n        string description;\n        uint256 nftPrice;\n        uint256 totalVolumeofTickets;\n        uint256 endTime;\n        uint256 nftId;\n        string[5] goals;\n        address nftContractAddress;\n        string nftSourceLink;\n        address charityAddress;\n        address raffleCreator;\n        uint256 rafflePool;\n        uint256 ticketPrice;\n        uint256 totalSoldTickets;\n        bool raffleCancelled;\n        bool raffleEnded;\n        uint256 fundsInContract;\n        uint256[] tickets;\n        uint winningTicket;\n        address raffleWinner;\n        address payable developmentTeam;\n    }\n\n    struct RaffleInfo {\n        uint raffleId;\n        string raffleName;\n        string description;\n        string[5] goals;\n        uint256 nftPrice;\n        uint256 totalVolumeofTickets;\n        uint256 endTime;\n        uint256 nftId;\n        address nftContractAddress;\n        string nftSourceLink;\n        address charityAddress;\n        address raffleCreator;\n        uint256 rafflePool;\n        uint256 ticketPrice;\n        uint256 totalSoldTickets;\n        uint winningTicket;\n        address raffleWinner;\n        bool raffleCancelled;\n        bool raffleEnded;\n    }\n\n    mapping(uint256 => Raffle) private raffles;\n    mapping(uint256 => mapping(uint256 => address)) public ticketToOwner;\n    uint256 private raffleCount = 0;\n\n    event raffleEnded(uint256 indexed raffleId);\n\n    function requestRandomTicket(uint256 _raffleId) public returns (uint256 requestId) {\n        uint256 totalTicketsSold = raffles[_raffleId].totalSoldTickets;\n        require(totalTicketsSold > 0, \"No tickets sold yet\");\n        require(\n            raffles[_raffleId].totalSoldTickets >= (raffles[_raffleId].totalVolumeofTickets * 80) / 100,\n            \"Not enough ticket sold\"\n        );\n\n        requestId = COORDINATOR.requestRandomWords(\n            keyHash,\n            s_subscriptionId,\n            requestConfirmations,\n            callbackGasLimit,\n            numWords\n        );\n        \n        // Create a new RequestStatus for this requestId and associate it with the raffleId\n        s_requests[requestId] = RequestStatus({\n            randomWords: new uint256[](0),\n            exists: true,\n            fulfilled: false\n        });\n        \n        // Map the raffleId to the requestId\n        raffleIdToRequestId[_raffleId] = requestId;\n\n        requestIds.push(requestId);\n        lastRequestId = requestId;\n        emit RequestSent(requestId, numWords);\n        return requestId;\n    }\n\n    function getRequestForRaffle(uint256 _raffleId) public view returns (uint256 requestId) {\n    requestId = raffleIdToRequestId[_raffleId];\n    require(requestId != 0, \"No request for this id\");\n    return requestId;\n    }\n\n    function fulfillRandomWords(\n        uint256 _requestId,\n        uint256[] memory _randomWords\n    ) internal override {\n        require(s_requests[_requestId].exists, \"request not found\");\n        s_requests[_requestId].fulfilled = true;\n        s_requests[_requestId].randomWords = _randomWords;\n        emit RequestFulfilled(_requestId, _randomWords);\n    }\n\n    function pickRandomTicket(uint256 _raffleId, uint256 requestId) private view returns(uint256) {\n        require(s_requests[requestId].fulfilled, \"Request not fulfilled yet\");\n        uint256 randomValue = s_requests[requestId].randomWords[0];\n        uint256 randomNumber = randomValue % raffles[_raffleId].totalSoldTickets;\n        uint256 winningTicket = randomNumber + 1; // Adding 1 to convert 0-based index to 1-based ticket numbers\n        return winningTicket;\n    }\n\n    function getRequestStatus(\n        uint256 _requestId\n    ) external view returns (bool fulfilled, uint256[] memory randomWords) {\n        require(s_requests[_requestId].exists, \"request not found\");\n        RequestStatus memory request = s_requests[_requestId];\n        return (request.fulfilled, request.randomWords);\n    }\n\n    function createRaffle(\n        string memory _raffleName,\n        string memory _description,\n        uint256 _nftPrice,\n        uint256 _totalVolumeofTickets,\n        uint256 _endTime,\n        uint256 _nftId,\n        address _nftContractAddress,\n        string[5] memory _goals,\n        string memory _nftSourceLink,\n        address _charityAddress\n    ) public returns (uint256) {\n        require(\n            _nftContractAddress != address(0),\n            \"Invalid NFT contract address\"\n        );\n        require(_endTime > block.timestamp, \"End time must be in future\");\n        IERC721 nftContract = IERC721(_nftContractAddress);\n        require(\n            msg.sender == nftContract.ownerOf(_nftId),\n            \"Only NFT owner can create raffle\"\n        );\n\n        nftContract.safeTransferFrom(msg.sender, address(this), _nftId);\n        raffleCount++;\n\n        raffles[raffleCount] = Raffle({\n            raffleId: raffleCount,\n            raffleName: _raffleName,\n            description: _description,\n            goals: _goals,\n            nftPrice: _nftPrice,\n            totalVolumeofTickets: _totalVolumeofTickets,\n            endTime: _endTime,\n            nftId: _nftId,\n            nftContractAddress: _nftContractAddress,\n            nftSourceLink: _nftSourceLink,\n            raffleCreator: msg.sender,\n            rafflePool: (_nftPrice.mul(150)).div(100),\n            ticketPrice: 0,\n            charityAddress: _charityAddress,\n            totalSoldTickets: 0,\n            raffleCancelled: false,\n            raffleEnded: false,\n            fundsInContract: 0,\n            tickets: new uint256[](0),\n            winningTicket: 0,\n            raffleWinner: address(0),\n            developmentTeam: payable(\n                address(0x1Eb43EBde750C57AaCEE85777e7c063218B0e1B4)\n            )\n        });\n\n        raffles[raffleCount].ticketPrice = raffles[raffleCount].rafflePool.div(\n            _totalVolumeofTickets\n        );\n\n        return raffleCount;\n    }\n\n    function getTicketPrice(uint256 _raffleId) public view returns (uint256) {\n        return raffles[_raffleId].ticketPrice;\n    }\n\n    function getTicketsOwned(\n        address _address,\n        uint256 raffleId\n    ) public view returns (uint256) {\n        uint256 totalTicketsOwned = 0;\n        for (uint256 i = 0; i < raffles[raffleId].tickets.length; i++) {\n            if (\n                ticketToOwner[raffleId][raffles[raffleId].tickets[i]] ==\n                _address\n            ) {\n                totalTicketsOwned = totalTicketsOwned.add(1);\n            }\n        }\n        return totalTicketsOwned;\n    }\n\n    function getOwnedRaffles(\n        address owner\n    ) public view returns (uint256 totalRaffles, uint256[] memory raffleIds) {\n        uint256[] memory ownedRaffleIds = new uint256[](raffleCount);\n        uint256 count = 0;\n        for (uint256 i = 0; i <= raffleCount; i++) {\n            if (raffles[i].raffleCreator == owner) {\n                ownedRaffleIds[count] = i;\n                count++;\n            }\n        }\n        uint256[] memory result = new uint256[](count);\n        for (uint256 j = 0; j < count; j++) {\n            result[j] = ownedRaffleIds[j];\n        }\n        return (count, result);\n    }\n\n    function getAvailableTickets(\n        uint256 _raffleID\n    ) public view returns (uint256) {\n        Raffle storage raffle = raffles[_raffleID];\n        require(raffle.raffleId != 0, \"Raffle not found\");\n\n        if (raffle.raffleEnded || raffle.raffleCancelled) {\n            return 0;\n        } else {\n            return raffle.totalVolumeofTickets - raffle.totalSoldTickets;\n        }\n    }\n\n    function buyTicket(\n        uint256 _raffleId,\n        uint256 _totalTicketsWanted\n    ) public payable {\n        Raffle storage raffle = raffles[_raffleId];\n\n        require(!raffle.raffleCancelled, \"Raffle is cancelled\");\n        require(!raffle.raffleEnded, \"Raffle is ended\");\n        require(_totalTicketsWanted > 0, \"Invalid number of tickets\");\n        require(\n            _totalTicketsWanted <=\n                raffle.totalVolumeofTickets - raffle.totalSoldTickets,\n            \"Not enough tickets available\"\n        );\n        uint256 totalTicketPrice = _totalTicketsWanted * raffle.ticketPrice;\n        require(msg.value >= totalTicketPrice, \"Incorrect payment amount\");\n\n        // Update ticket ownership\n        for (uint256 i = 0; i < _totalTicketsWanted; i++) {\n            uint256 ticket = raffle.totalSoldTickets + 1 + i;\n            raffle.tickets.push(ticket);\n            ticketToOwner[_raffleId][ticket] = msg.sender;\n        }\n\n        // Update raffle info\n        raffle.totalSoldTickets += _totalTicketsWanted;\n        raffle.fundsInContract += msg.value;\n    }\n\n    function getTotalTicketPrice(\n        uint _raffleId,\n        uint256 _totalTicketsWanted\n    ) public view returns (uint256) {\n        Raffle storage raffle = raffles[_raffleId];\n\n        uint256 totalTicketPrice = _totalTicketsWanted * raffle.ticketPrice;\n        return totalTicketPrice;\n    }\n\n    function pickWinner(uint256 raffleId, uint256 requestId) public {\n        Raffle storage raffle = raffles[raffleId];\n\n        require(!raffle.raffleCancelled, \"Raffle has been cancelled\");\n        require(!raffle.raffleEnded, \"Raffle has already ended\");\n        require(\n            raffle.totalSoldTickets >= (raffle.totalVolumeofTickets * 80) / 100,\n            \"Raffle can't be completed yet\"\n        );\n        require(\n            raffle.raffleCreator == msg.sender,\n            \"you are not the raffle owner\"\n        );\n\n        uint256 winningTicket = pickRandomTicket(raffleId, requestId);\n\n        uint winningTicketNumber = winningTicket;\n        address winningTicketOwner = ticketToOwner[raffleId][winningTicketNumber];\n        require(winningTicketOwner != address(0), \"Winner has not been selected yet\");\n\n        // Store the winning ticket information in the raffle struct\n        raffle.raffleWinner = winningTicketOwner;\n\n        // Emit an event to indicate that a winner has been selected.\n        emit WinnerSelected(raffleId, winningTicketNumber, winningTicketOwner);\n\n        // Send the prize pool to each entity\n        uint256 rafflePrizePool = raffles[raffleId].rafflePool;\n        uint256 raffleCreatorPrize = raffles[raffleId].nftPrice +\n            (rafflePrizePool.mul(5)).div(100);\n        uint256 developmentTeamPrize = (rafflePrizePool.mul(5)).div(100);\n        uint256 charityPrize = rafflePrizePool -\n            raffleCreatorPrize -\n            developmentTeamPrize;\n\n        // Transfer the prize amounts to each entity.\n        payable(raffle.raffleCreator).transfer(raffleCreatorPrize);\n        payable(raffle.developmentTeam).transfer(developmentTeamPrize);\n        payable(raffle.charityAddress).transfer(charityPrize);\n\n        // Call safeTransferFrom function on ERC721 token contract to transfer the NFT to the winner.\n        IERC721(raffle.nftContractAddress).safeTransferFrom(\n            address(this),\n            winningTicketOwner,\n            raffle.nftId\n        );\n\n        // Mark the raffle as ended\n        raffle.raffleEnded = true;\n\n        // Emit raffleEnded event\n        emit raffleEnded(raffleId);\n    }\n\n    function cancelRaffle(uint256 _raffleId) public {\n        Raffle storage raffle = raffles[_raffleId];\n        require(\n            msg.sender == raffle.raffleCreator,\n            \"Only raffle creator can cancel the lottery\"\n        );\n        require(!raffle.raffleEnded, \"Raffle has already ended\");\n\n        // Refund funds to ticket owners\n        for (uint256 i = 0; i < raffle.tickets.length; i++) {\n            uint256 ticket = raffle.tickets[i];\n            address ticketOwner = ticketToOwner[_raffleId][ticket];\n            if (ticketOwner != address(0)) {\n                payable(ticketOwner).transfer(raffle.ticketPrice);\n            }\n        }\n\n        // Transfer NFT back to raffle creator\n        IERC721(raffle.nftContractAddress).safeTransferFrom(\n            address(this),\n            raffle.raffleCreator,\n            raffle.nftId\n        );\n\n        // Update raffle status\n        raffle.raffleCancelled = true;\n        raffle.raffleEnded = true;\n    }\n\n    function getPrizePool(\n        uint256 _raffleId\n    ) public view returns (uint256, uint256, uint256, uint256) {\n        uint256 rafflePrizePool = raffles[_raffleId].rafflePool;\n        uint256 raffleCreatorPrize = raffles[_raffleId].nftPrice +\n            (rafflePrizePool.mul(5)).div(100);\n        uint256 developmentTeamPrize = (rafflePrizePool.mul(5)).div(100);\n        uint256 charityPrize = rafflePrizePool -\n            raffleCreatorPrize -\n            developmentTeamPrize;\n\n        return (\n            rafflePrizePool,\n            raffleCreatorPrize,\n            developmentTeamPrize,\n            charityPrize\n        );\n    }\n\n    function getRaffleWinner(\n        uint256 raffleId\n    ) public view returns (address winner, uint256 winningTicket) {\n        require(\n            !raffles[raffleId].raffleCancelled,\n            \"Raffle has been cancelled\"\n        );\n        require(!raffles[raffleId].raffleEnded, \"Raffle has already ended\");\n        require(\n            raffles[raffleId].winningTicket != 0,\n            \"Winner has not been picked yet\"\n        );\n\n        return (\n            raffles[raffleId].raffleWinner,\n            raffles[raffleId].winningTicket\n        );\n    }\n\n    function raffleInfo(\n        uint256 _raffleID\n    ) public view returns (RaffleInfo memory) {\n        Raffle storage raffle = raffles[_raffleID];\n\n        RaffleInfo memory raffleInfo = RaffleInfo({\n            raffleId: _raffleID,\n            raffleName: raffle.raffleName,\n            description: raffle.description,\n            goals: raffle.goals,\n            nftPrice: raffle.nftPrice,\n            totalVolumeofTickets: raffle.totalVolumeofTickets,\n            endTime: raffle.endTime,\n            nftId: raffle.nftId,\n            nftContractAddress: raffle.nftContractAddress,\n            nftSourceLink: raffle.nftSourceLink,\n            charityAddress: raffle.charityAddress,\n            raffleCreator: raffle.raffleCreator,\n            rafflePool: raffle.rafflePool,\n            ticketPrice: raffle.ticketPrice,\n            totalSoldTickets: raffle.totalSoldTickets,\n            winningTicket: raffle.winningTicket,\n            raffleWinner: raffle.raffleWinner,\n            raffleCancelled: raffle.raffleCancelled,\n            raffleEnded: raffle.raffleEnded\n        });\n\n        return raffleInfo;\n    }\n\n    function onERC721Received(\n        address operator,\n        address from,\n        uint256 tokenId,\n        bytes calldata data\n    ) external returns (bytes4) {\n        return this.onERC721Received.selector;\n    }\n\n    function getEntityAddresses(\n        uint256 _raffleId\n    ) public view returns (address, address, address) {\n        return (\n            raffles[_raffleId].raffleCreator,\n            raffles[_raffleId].developmentTeam,\n            raffles[_raffleId].charityAddress\n        );\n    }\n\n    function getTotalRaffles() public view returns (uint256) {\n        return raffleCount;\n    }\n\n    function getContractBalance() public view returns (uint256) {\n        return address(this).balance;\n    }\n}",
  "sourcePath": "/Users/admin/git_repos/originX-nft-raffler/backend/contracts/mainNftRaffle.sol",
  "compiler": {
    "name": "solc",
    "version": "0.8.14+commit.80d49f37.Emscripten.clang"
  },
  "schemaVersion": "3.4.16",
  "updatedAt": "2024-06-06T04:01:15.957Z",
  "networkType": "ethereum",
  "devdoc": {
    "kind": "dev",
    "methods": {
      "onERC721Received(address,address,uint256,bytes)": {
        "details": "Whenever an {IERC721} `tokenId` token is transferred to this contract via {IERC721-safeTransferFrom} by `operator` from `from`, this function is called. It must return its Solidity selector to confirm the token transfer. If any other value is returned or the interface is not implemented by the recipient, the transfer will be reverted. The selector can be obtained in Solidity with `IERC721Receiver.onERC721Received.selector`."
      }
    },
    "version": 1
  },
  "userdoc": {
    "kind": "user",
    "methods": {
      "acceptOwnership()": {
        "notice": "Allows an ownership transfer to be completed by the recipient."
      },
      "constructor": {
        "notice": "COORDINATOR: 0x7a1BaC17Ccc5b313516C5E16fb24f7659aA5ebed"
      },
      "owner()": {
        "notice": "Get the current owner"
      },
      "transferOwnership(address)": {
        "notice": "Allows an owner to begin transferring ownership to a new address, pending."
      }
    },
    "version": 1
  }
}